{
  "transactions": [
    {
      "hash": "0xa960417b72862d5e3fa822f3a19d70d1d1be8e874ddc4e34034b4498311b21ed",
      "transactionType": "CREATE",
      "contractName": "Testers",
      "contractAddress": "0xfd5309cbb4b58b14802db1a3c980fa49ffe09cb8",
      "function": null,
      "arguments": [
        "0x2d0c48cB87A5d2245f0f7D134f438e6196A621fa"
      ],
      "transaction": {
        "from": "0x4b59b152aabdfe6226cefdbde9e866694555616b",
        "gas": "0x667f5",
        "value": "0x0",
        "input": "0x6080604052348015600f57600080fd5b506040516104fd3803806104fd833981016040819052602c916050565b600080546001600160a01b0319166001600160a01b0392909216919091179055607e565b600060208284031215606157600080fd5b81516001600160a01b0381168114607757600080fd5b9392505050565b6104708061008d6000396000f3fe608060405234801561001057600080fd5b50600436106100415760003560e01c80632595edcf1461004657806398ae295314610061578063d4b839921461008c575b600080fd5b61004e61009f565b6040519081526020015b60405180910390f35b61007461006f366004610347565b6101d2565b6040516001600160a01b039091168152602001610058565b600054610074906001600160a01b031681565b6000805460408051600481526024810182526020810180516001600160e01b0316632096525560e01b1790529051839283926001600160a01b03909116916100e79190610384565b600060405180830381855afa9150503d8060008114610122576040519150601f19603f3d011682016040523d82523d6000602084013e610127565b606091505b50915091508161017e5760405162461bcd60e51b815260206004820152601a60248201527f636f756c64206e6f7420726574726976656420646174612e2e2e00000000000060448201526064015b60405180910390fd5b6101b46040518060400160405280601481526020017376616c756520726563696576656420697320257360601b815250826102d1565b6000818060200190518101906101ca91906103a0565b949350505050565b6000805460405160248101849052829182916001600160a01b039091169060440160408051601f198184030181529181526020820180516001600160e01b0316635524107760e01b179052516102289190610384565b6000604051808303816000865af19150503d8060008114610265576040519150601f19603f3d011682016040523d82523d6000602084013e61026a565b606091505b5091509150816102b25760405162461bcd60e51b8152602060048201526013602482015272636f756c64206e6f74207365742076616c756560681b6044820152606401610175565b6000818060200190518101906102c891906103b9565b95945050505050565b61031682826040516024016102e7929190610415565b60408051601f198184030181529190526020810180516001600160e01b0316634b5c427760e01b17905261031a565b5050565b61032381610326565b50565b80516a636f6e736f6c652e6c6f67602083016000808483855afa5050505050565b60006020828403121561035957600080fd5b5035919050565b60005b8381101561037b578181015183820152602001610363565b50506000910152565b60008251610396818460208701610360565b9190910192915050565b6000602082840312156103b257600080fd5b5051919050565b6000602082840312156103cb57600080fd5b81516001600160a01b03811681146103e257600080fd5b9392505050565b60008151808452610401816020860160208601610360565b601f01601f19169290920160200192915050565b60408152600061042860408301856103e9565b82810360208401526102c881856103e956fea26469706673582212204fe9e378fcbb1aacf50ec4cb01f9924f568faa9e44695ffc54893b2b061c86f064736f6c634300081a00330000000000000000000000002d0c48cb87a5d2245f0f7d134f438e6196a621fa",
        "nonce": "0x45",
        "chainId": "0xaa36a7"
      },
      "additionalContracts": [],
      "isFixedGasLimit": false
    },
    {
      "hash": "0xed001ea8acfa039ec40933e912c0281cbb8b31c5299af1f1d704a9969cd74f61",
      "transactionType": "CALL",
      "contractName": "Testers",
      "contractAddress": "0xfd5309cbb4b58b14802db1a3c980fa49ffe09cb8",
      "function": "setValueWithCall(uint256)",
      "arguments": [
        "20"
      ],
      "transaction": {
        "from": "0x4b59b152aabdfe6226cefdbde9e866694555616b",
        "to": "0xfd5309cbb4b58b14802db1a3c980fa49ffe09cb8",
        "gas": "0xa890",
        "value": "0x0",
        "input": "0x98ae29530000000000000000000000000000000000000000000000000000000000000014",
        "nonce": "0x46",
        "chainId": "0xaa36a7"
      },
      "additionalContracts": [],
      "isFixedGasLimit": false
    }
  ],
  "receipts": [
    {
      "status": "0x1",
      "cumulativeGasUsed": "0x828ea5",
      "logs": [],
      "logsBloom": "0x00000000000000000000000000000000000000000000000000000000000000000000000000000000000000000000000000000000000000000000000000000000000000000000000000000000000000000000000000000000000000000000000000000000000000000000000000000000000000000000000000000000000000000000000000000000000000000000000000000000000000000000000000000000000000000000000000000000000000000000000000000000000000000000000000000000000000000000000000000000000000000000000000000000000000000000000000000000000000000000000000000000000000000000000000000000",
      "type": "0x2",
      "transactionHash": "0xa960417b72862d5e3fa822f3a19d70d1d1be8e874ddc4e34034b4498311b21ed",
      "transactionIndex": "0x5b",
      "blockHash": "0xffdda6b79c468806fa46d8e7d72dcd92e19df5c5ed4546e54d45ab0b5f2db127",
      "blockNumber": "0x61e8ec",
      "gasUsed": "0x4edd4",
      "effectiveGasPrice": "0x1640e8de9",
      "from": "0x4b59b152aabdfe6226cefdbde9e866694555616b",
      "to": null,
      "contractAddress": "0xfd5309cbb4b58b14802db1a3c980fa49ffe09cb8"
    },
    {
      "status": "0x1",
      "cumulativeGasUsed": "0x8301e7",
      "logs": [],
      "logsBloom": "0x00000000000000000000000000000000000000000000000000000000000000000000000000000000000000000000000000000000000000000000000000000000000000000000000000000000000000000000000000000000000000000000000000000000000000000000000000000000000000000000000000000000000000000000000000000000000000000000000000000000000000000000000000000000000000000000000000000000000000000000000000000000000000000000000000000000000000000000000000000000000000000000000000000000000000000000000000000000000000000000000000000000000000000000000000000000",
      "type": "0x2",
      "transactionHash": "0xed001ea8acfa039ec40933e912c0281cbb8b31c5299af1f1d704a9969cd74f61",
      "transactionIndex": "0x5c",
      "blockHash": "0xffdda6b79c468806fa46d8e7d72dcd92e19df5c5ed4546e54d45ab0b5f2db127",
      "blockNumber": "0x61e8ec",
      "gasUsed": "0x7342",
      "effectiveGasPrice": "0x1640e8de9",
      "from": "0x4b59b152aabdfe6226cefdbde9e866694555616b",
      "to": "0xfd5309cbb4b58b14802db1a3c980fa49ffe09cb8",
      "contractAddress": null
    }
  ],
  "libraries": [],
  "pending": [],
  "returns": {},
  "timestamp": 1722520239,
  "chain": 11155111,
  "commit": "310088e"
}